:0500000002004080FE3B
:10004000A930B9021BE5312535F539E5322536F5FC
:100050003AE5332537F53BE5342538F53C02000316
:10006000B90339E531253AF543E532253BF544E559
:1000700033253CF545E534253DF546E535253EF58A
:1000800047E536253FF548E5372540F549E538256C
:1000900041F54AE5392542F54B020003B90463E511
:1000A000312541F551E5322542F552E5332543F539
:1000B00053E5342544F554E5352545F555E5362514
:1000C00046F556E5372547F557E5382548F558E50F
:1000D000392549F559E53A254AF55AE53B254BF5C9
:1000E0005BE53C254CF55CE53D254DF55DE53E25A4
:1000F0004EF55EE53F254FF55FE5402550F5600282
:050100000003020003F2
:00000001FF
