:03000000020D46A8
:0C0D4600787FE4F6D8FD758132020D8D37
:100A99000A0D2A5072657373204120666F722041D6
:100AA90063636F756E7420646973706C617920611A
:100AB9006E64205720666F7220776974686472616A
:100AC90077696E6720636173682A0A000A0D2A50E4
:100AD9004C4541534520454E54455220594F555296
:100AE900204143434F554E54204E554D4245522ABD
:100AF9000A000A0D2A4163636F756E7420686F6C72
:100B0900646572203A20536974612A0A000A0D2A21
:100B19004163636F756E742062616C616E636520F9
:100B29003A31303030302A0A000A0D2A4163636FA6
:100B3900756E7420686F6C646572203A2047697419
:100B4900612A0A000A0D2A6E6F2073756368206195
:100B590063636F756E742C706C65616520656E7466
:100B690065722076616C69642064657461696C736F
:100B79002A0A000A0D2A77697468647261772073FA
:100B8900746174652C20656E74657220796F757255
:100B9900206163636F756E74206E756D6265722A6C
:100BA9000A000A0D2A456E74657220616D6F756EB3
:100BB900742C20696E2068756E64726564732A0AE4
:100BC900000A0D2A696E73756666696369656E74D4
:090BD9002066756E64732A0A009F
:100E3B00C101C100060E0000000000000608000002
:100E4B000000000003170000000314000000051A47
:050E5B00000000000092
:0F0E7100758920758DF3759850D28E75A89022D3
:0A0C96007B007A007922AF27AE261A
:100CA0008E298F2A8B2B8A2C892D7C277D10120C64
:100CB00041EF2430120BFBAE29AF2A7C277D1012A6
:100CC0000C417E037FE8CFCDCFCECCCE120C41EFCE
:100CD0002430AB2BAA2CA92D900001120C0DAE29AB
:100CE000AF2A7C037DE8120C417E007F64CFCDCF1C
:100CF000CECCCE120C41EF2430AB2BAA2CA92D90D8
:100D00000002120C0DAE29AF2A7C007D64120C414A
:100D10007E007F0ACFCDCFCECCCE120C41EF243057
:100D2000AB2BAA2CA92D900003120C0DAE29AF2AD3
:100D30007C007D0A120C41ED2430AB2BAA2CA92D8E
:060D4000900004020C0DFE
:100DD2008E2E8F2F8B308A3189327C007D0A120C45
:100DE200417E007F0ACFCDCFCECCCE120C41EF2474
:100DF20030120BFBAE2EAF2F7C007D0A120C41EDA0
:0E0E02002430AB30AA31A932900001020C0D51
:080E8A008F993001FDC2012225
:060E10007BFF7A0B79164E
:100E16008B298A2A892BAB29AA2AA92B120BE260D5
:100E260013052BE52B7002052A14F9120BE2FF12AB
:050E36000E8A80E2229B
:090E8000E4FF3000FDC200AF994F
:010E89002246
:03002300020E6169
:100E6100309905C299D20132309804C298D2003229
:10080000752131E4F522F523F524F525F526F527A4
:10081000120E717BFF7A0A7999120E16120E808FD2
:1008200021E521644170207BFF7A0A79D5120E16EA
:10083000120E808F21E521B431028024E5217BFF57
:10084000B43202802A8038E521646170397BFF7AF6
:100850000A79D5120E16120E808F21E521B43108C7
:100860007BFF7A0A79FB800BE5217BFFB432107A9B
:100870000B7932120E167BFF7A0B7916020A877AF1
:100880000B794D020A87E521645760030209807BDA
:10089000FF7A0B797C120E16120E808F21E52164EF
:1008A0003170677BFF7A0A79FB120E16120E107BED
:1008B000FF7A0B79AB120E16120E808F217526006F
:1008C000752701120C96E522B52108852623852778
:1008D0002480110527E52770020526C39464E526C8
:1008E000940040DFAE23AF247C007D64120C2F8E79
:1008F000238F24D3E5249410E52394275003020981
:10090000F87BFF7A0B79CA020A87E52164327067A7
:100910007BFF7A0B7932120E16120E107BFF7A0BC8
:1009200079AB120E16120E808F21752600752701E5
:10093000120C96E522B521088526238527248011EF
:100940000527E52770020526C39464E52694004038
:10095000DFAE23AF247C007D64120C2F8E238F2406
:0B096000D3E5249410E52394275003F6
:10096B00020A707BFF7A0B79CA020A877BFF7A0B2C
:10097B00794D020A87E521647760030208137BFF38
:10098B007A0B797C120E16120E808F21E5216431C1
:10099B0070727BFF7A0A79FB120E16120E107BFF18
:1009AB007A0B79AB120E16120E808F2175260075FD
:1009BB002701120C96E522B52108852623852724CD
:1009CB0080110527E52770020526C39464E526945C
:1009DB000040DFAE23AF247C007D64120C2F8E23EE
:1009EB008F24D3E5249410E5239427500E7B007AB3
:1009FB00007925120CA0AF25020A7B7BFF7A0B79BD
:100A0B00CA020A87E521643270787BFF7A0B793250
:100A1B00120E16120E107BFF7A0B79AB120E1612FA
:100A2B000E808F21752600752701120C96E522B5D5
:100A3B00210885262385272480110527E5277002A9
:100A4B000526C39464E526940040DFAE23AF247CD7
:100A5B00007D64120C2F8E238F24D3E5249410E594
:050A6B00239427501147
:0E0A70007B007A007928120CA0AF28120E8AA3
:100A7E000208137BFF7A0B79CA120E160208137B3B
:0B0A8E00FF7A0B794D120E16020813C0
:100D5200020800E493A3F8E493A34003F68001F2AF
:100D620008DFF48029E493A3F85407240CC8C333A2
:100D7200C4540F4420C8834004F456800146F6DF71
:100D8200E4800B0102040810204080900E3BE47EB8
:100D9200019360BCA3FF543F30E509541FFEE49366
:100DA200A360010ECF54C025E060A840B8E493A32D
:100DB200FAE493A3F8E493A3C8C582C8CAC583CA58
:100DC200F0A3C8C582C8CAC583CADFE9DEE780BE10
:010E60000091
:100BE200BB010689828A83E0225002E722BBFE0211
:090BF200E32289828A83E4932244
:100BFB00BB010689828A83F0225002F722BBFE01D9
:020C0B00F322D2
:100C0D00F8BB010DE58229F582E5833AF583E8F01D
:100C1D00225006E92582C8F622BBFE05E92582C8C9
:020C2D00F222B1
:100C2F00EF8DF0A4A8F0CF8CF0A428CE8DF0A42ED9
:020C3F00FE2293
:100C4100BC000BBE0029EF8DF084FFADF022E4CC97
:100C5100F875F008EF2FFFEE33FEEC33FCEE9DEC60
:100C6100984005FCEE9DFE0FD5F0E9E4CEFD22EDA6
:100C7100F8F5F0EE8420D21CFEADF075F008EF2FF0
:100C8100FFED33FD4007985006D5F0F222C398FDE1
:050C91000FD5F0EA227E
:00000001FF
