:03000000020040BB
:03000B00021000E0
:1000400075900071E4914F914F74819121914F907F
:1000500004609130914F74C19121914F90046B9144
:1000600030914F790271B475901F7DFF7EFF7589C5
:1000700011ED64FFFDEE64FFFE74012DFDE4132E0F
:10008000FE8D8A8E8C75A882D28C7B00BB01FD719F
:10009000E4914F74809121914F9004789130914F69
:1000A000914F7100710B74C09121914FE563913EA6
:1000B000914F914F74C19121914FE564913E914FC1
:1000C000914F74C29121914FE565913E914F914FAF
:1000D00074C39121914FE566913E914F914F914F9D
:1000E00074C59121914F9004869130914F914F7931
:0600F0000571B40200409E
:10030000EA75F020A485F061F56022E56075F00AD9
:1003100084A9F0E56175F00A847406A475F00A8476
:10032000E925F075F00A84E5F02430F566E560759E
:10033000F00A84F9AAF0E56175F00A84FBACF07468
:1003400006A42A75F00A84FAEC75F019A4FCE97584
:10035000F00A84E5F02AF565EB75F006A475F00A5D
:1003600084E5F02565F565EC75F00A84E5F0256512
:1003700075F00A84E5F02430F565E975F00A84F932
:10038000E5F02AFAEB75F019A429F9EB75F006A44B
:100390002AFAEC75F00A8429F9E5F02A75F00A8446
:1003A00029F9E975F00A84FAE5F02430F564EA24C5
:1003B00030F56322741F89F0A4FBDB01227DFF7EF0
:1003C000FF758911ED64FFFDEE64FFFE74012DFDE4
:1003D000E4132EFE8D8B8E8DD28E308FFDC28EC299
:1003E0008F0203BA75A038C280C281D282914FC2F7
:1003F00082914F75A00CC280C281D282914FC2827D
:10040000914F75A001C280C281D282914FC2829168
:100410004F75A006C280C281D282914FC282914F95
:1004200022F5A0C280C281D282914FC282914F2216
:10043000C0E0E4936005913EA380F7D0E022F5A0F0
:10044000D280C281D282914FC282914F914F22C0FD
:1004500000C00178017FFFDFFED8FAD001D0002272
:10046000546F67676C6520535731006966204C45AF
:100470004420676C6F7773005265616374696F6EB7
:100480002054696D65006D696C6C697365636F6E8E
:0304900064730092
:10100000AC90BC110A7590007B01C28CC28D320A73
:0B101000C28CC28D8D8A8E8CD28C3277
:00000001FF
