:03000000020030CB
:1000300075A000759000718A718A7100718A718A49
:10004000718A7483713D718A9004E8714C718A746D
:10005000C3713D718A9004F5714C7590FF717F7189
:100060008A718A7100718A718A718A7482713D7194
:100070008A900500714C718A74C3713D718A900435
:10008000F5714C75908FE59075F01084A9F0E9C476
:10009000F530717F718A718A7100718A718A718AF3
:1000A0007482713D718A900500714C718A74C371BC
:1000B0003D718A9004F5714C75904FE59075F01084
:1000C00084E4253025F0F530717F718A718A7100E2
:1000D000718A718A718A7482713D718A900500718A
:1000E0004C718A74C3713D718A9004F5714C75909E
:1000F0002FE59075F01084A9F0E9C4F531717F7196
:100100008A718A7100718A718A718A7482713D71F3
:100110008A900500714C718A74C3713D718A900494
:10012000F5714C75901FE59075F01084E42531252C
:10013000F0F531717FC294C295C296C297718A71EF
:100140008A7100718A718A718A7482713D718A9094
:10015000050F714C718A9100917474C1713D718A5F
:0701600090051E714C74C8EC
:10016700713D718A900532714C74C9713D718A90E5
:100177000524714C74C6713D718AE560715A74C764
:10018700713D718AE561715A74CE713D718AE5627C
:10019700715A74CF713D718AE563715A717FE53089
:1001A7008531F0A485F051F550717F718A718A719C
:1001B70000718A718A718A74C1713D718A90051EB6
:1001C700714C74C8713D718A900532714C74C97154
:1001D7003D718A900524714C74C6713D718AE56042
:1001E700715A74C7713D718AE561715A74CE713D58
:1001F700718AE562715A74CF713D718AE563715AEC
:10020700855030855131910091747482713D718AA6
:1002170090052A714C7489713D718AE562715A742F
:100227008A713D718AE563715A748B713D718AE5F4
:1002370060715A748C713D718AE561715A718A7166
:030247007F80FEB7
:1003000075A038C280C281D282718AC282718A7518
:10031000A00CC280C281D282718AC282718A75A009
:1003200001C280C281D282718AC282718A75A0069E
:10033000C280C281D282718AC282718A22F5A0C231
:1003400080C281D282718AC282718A22C0E0E49323
:100350006005715AA380F7D0E022F5A0D280C28157
:10036000D282718AC282718A718A22C00079F4D9DC
:10037000FED00022C0007E28716BDEFCD00022C0BF
:10038000007FC87174DFFCD00022C000C00178017A
:0B03900079FFD9FED8FAD001D000227E
:10040000E53075F01084F9AAF07B0A7D068000E4DF
:10041000E92401F9E9B50343E424302994017B0A76
:10042000F5608011E4E9940AFCECB50534E424405D
:100430002CF5608000E4EA2401FAEAB50329E424FB
:10044000302A9401F5617B0A8029E4EA940AFCECE5
:10045000B5051AE424402CF5618018DBB77B0A80CF
:10046000C3DDC67D06800CDBD17B0A80DDDDE07D4F
:1004700006800022E53175F01084F9AAF07B0A7D30
:10048000068000E4E92401F9E9B50343E4243029B6
:1004900094017B0AF5628011E4E9940AFCECB5054D
:1004A00034E424402CF5628000E4EA2401FAEAB541
:1004B0000329E424302A9401F5637B0A8029E4EAC5
:1004C000940AFCECB5051AE424402CF5638018DB93
:1004D000B77B0A80C3DDC67D06800CDBD17B0A803A
:1004E000DDDDE07D06800022456E74657220496E78
:1004F000707574730045453333372D323032320016
:1005000052656164696E6720496E7075747300434B
:100510006F6D7075746520726573756C74004E75BF
:100520006D313A004E756D323A00526573756C74D8
:040530003D002C005E
:00000001FF
