:03000000020040BB
:03000B00021000E0
:100040007590007130719B719B7481716D719B9083
:1000500003AC717C719B74C1716D719B9003B7711E
:100060007C719B7902710075901F7DFF7EFF758901
:1000700011ED64FFFDEE64FFFE74012DFDE4132E0F
:10008000FE8D8A8E8C75A882D28C7B00BB01FD719F
:1000900030719B719B7481716D719B9003C4717CF5
:1000A000719B74C1716D719B9003D2717C719B7453
:1000B000CA716D719BEA71DBE560718A719B74CBCB
:1000C000716D719BE561718A719B74CC716D719BCF
:1000D000E58C71DBE560718A719B74CD716D719BEC
:1000E000E561718A719B74CE716D719BE58A71DBDC
:1000F000E560718A719B74CF716D719BE561718A46
:0701000079057100020040C7
:10030000741F89F0A4FBDB01227DFF7EFF7589113C
:10031000ED64FFFDEE64FFFE74012DFDE4132EFE7F
:100320008D8B8E8DD28E308FFDC28EC28F020306D2
:1003300075A038C280C281D282719BC282719B75C6
:10034000A00CC280C281D282719BC282719B75A0B7
:1003500001C280C281D282719BC282719B75A0064C
:10036000C280C281D282719BC282719B22F5A0C2DF
:1003700080C281D282719BC282719B22C0E0E493D1
:100380006005718AA380F7D0E022F5A0D280C281F7
:10039000D282719BC282719B719B22C000C0017886
:1003A000017FFFDFFED8FAD001D00022546F6767CB
:1003B0006C6520535731006966204C454420676CBA
:1003C0006F7773005265616374696F6E2054696D55
:1003D0006500436F756E742069730075F01084F9C1
:1003E000AAF07B0A7D0680002401F9E9B50343E405
:1003F00024302994017B0AF5608011E4E9940AFC19
:10040000ECB50534E424402CF5608000E4EA2401D6
:10041000FAEAB50329E424302A9401F5617B0A80C5
:1004200029E4EA940AFCECB5051AE424402CF561B1
:080430008018DBB77B0A80C3D2
:10043800DDC67D06800CDBD17B0A80DDDDE07D0634
:030448008000220F
:10100000AC90BC110A7590007B01C28CC28D320A73
:0B101000C28CC28D8D8A8E8CD28C3277
:00000001FF
