:030000000209DC16
:0C09DC00787FE4F6D8FD75810A0208005F
:0A09E80041004200430044004500B6
:10088400E4F5A0C282C280C2817F38FE1209887F4B
:10089400047E001208DB7F067E001209887F047E36
:1008A400001208DB7F0C7E001209887F047E001290
:1008B40008DB7F017E001209887F047E001208DBBA
:0708C4007F807E000209881D
:1008CB007F017E001208DB7F811209887F017E0089
:1008DB00E4FDFCC3ED9FEC9E5015E4FBFA0BBB0053
:0F08EB00010ABA01F8BB7EF50DBD00010C80E4D7
:0108FA0022DB
:10098800C280C281D2828FA07F0A7E001208DBC299
:020998008222B9
:10099A00D280C281D2828FA07F0A7E001208DBC277
:0209AA008222A7
:1008FB008B088A09890AAB08AA09A90A12095B6045
:10090B0013050AE50A7002050914F912095BFF12B7
:05091B00099A80E222B0
:10097400900000B2871208D7A3E582B4DCF5E583C2
:03098400B405F0C7
:01098700224D
:0C092000120974C2877FE87E031208DB16
:10092C00900000B2871208D7A3E582B4EEF5E583F8
:03093C00B402F012
:01093F002295
:0F09BE0012092CC2877FE87E031208DB0209743E
:1009AC00120920120923C2877FE87E031208DB029A
:0209BC00092C04
:10094000120920C2877FE87E031208DB120974C2F5
:0B095000877FE87E031208DB02092C01
:0F09CD00120920C2877FE87E031208DB02092C83
:0309F20002092CCB
:1008000075900F3090181208841208CB7BFF7A097C
:1008100079E81208FB1208D71209BE02088230914B
:10082000181208841208CB7BFF7A0979EA1208FBB8
:100830001208D71209AC02088230921712088412EB
:1008400008CB7BFF7A0979EC1208FB1208D7120952
:1008500040802F3093171208841208CB7BFF7A094F
:1008600079EE1208FB1208D71209CD801512088400
:100870001208CB7BFF7A0979F01208FB1208D71215
:0408800009F280FEFB
:10095B00BB010689828A83E0225002E722BBFE029A
:09096B00E32289828A83E49322CD
:00000001FF
