:03000000020040BB
:03001B00021000D0
:100040007B1E7D507EC3758911ED64FFFDEE64FF5C
:10005000FE74012DFDE4132EFE8D8B8E8D75A88808
:10006000D28E5100516B516B7481513D516B900296
:100070007C514C516B7F01C280C281C282D28751B8
:1000800089C2875189BC01F57C007F027B1E7D50AF
:100090007EC3758911ED64FFFDEE64FFFE74012DD2
:1000A000FDE4132EFE8D8B8E8D75A888D28ED2879F
:1000B00051B2C28751B2BC01F57C007F037B1E7D2B
:1000C000507EC3758911ED64FFFDEE64FFFE74017F
:1000D0002DFDE4132EFE8D8B8E8D75A888D28ED2C9
:1000E0008751DBC28751DBBC01F57C007F047B1E9E
:1000F0007D507EC3758911ED64FFFDEE64FFFE74D3
:10010000012DFDE4132EFE8D8B8E8D75A888D28E69
:10011000D28751B2C28751B2BC01F57C007F057B0A
:10012000287D507EC3758911ED64FFFDEE64FFFEEE
:1001300074012DFDE4132EFE8D8B8E8D75A888D253
:070140008ED2877104C28713
:100147007104BC01F57C007F067B147D507EC3756E
:100157008911ED64FFFDEE64FFFE74012DFDE413CC
:100167002EFE8D8B8E8D75A888D28EC287BC01FB23
:100177007C007F077B287D507EC3758911ED64FF66
:10018700FDEE64FFFE74012DFDE4132EFE8D8B8EB4
:100197008D75A888D28ED2877104C2877104BC017D
:1001A700F57C007F087B287D507EC3758911ED643F
:1001B700FFFDEE64FFFE74012DFDE4132EFE8D8B13
:1001C7008E8D75A888D28ED287712DC287712DBC6E
:0501D70001F5020040EB
:1002000075A038C280C281D282516BC282516B7597
:10021000A00CC280C281D282516BC282516B75A088
:1002200001C280C281D282516BC282516B75A0061D
:10023000C280C281D282516BC282516B22F5A0C2B0
:1002400080C281D282516BC282516B22C0E0E493A2
:100250006005515AA380F7D0E022F5A0D280C28178
:10026000D282516BC282516B516B22C000C00178A7
:10027000017FFFDFFED8FAD001D00022524F4C4C54
:10028000494E472054494D450079C17A117589116D
:10029000E964FFF9EA64FFFA740129F9E4132AFA20
:1002A000898A8A8C79007A00D28C308DFDC28CC20A
:1002B0008D2279D07A0F758911E964FFF9EA64FF1C
:1002C000FA740129F9E4132AFA898A8A8C79007A66
:1002D00000D28C308DFDC28CC28D2279497A0D7589
:1002E0008911E964FFF9EA64FFFA740129F9E4135A
:1002F0002AFA898A8A8C79007A00D28C308DFDC2E4
:100300008CC28D22798E7A0A758911E964FFF9EA27
:0503100064FFFA740116
:1003150029F9E4132AFA898A8A8C79007A00D28C21
:10032500308DFDC28CC28D2279D67A0B758911E983
:1003350064FFF9EA64FFFA740129F9E4132AFA89DA
:100345008A8A8C79007A00D28C308DFDC28CC28D60
:010355002285
:10100000BF011ADB07C28EC28F7C0132C28EC28F33
:101010007589118D8B8E8D75A888D28E32BF021A7C
:10102000DB07C28EC28F7C0132C28EC28F758911DE
:101030008D8B8E8D75A888D28E32BF031ADB07C2C6
:101040008EC28F7C0132C28EC28F7589118D8B8EBC
:101050008D75A888D28E32BF0418DB05C28E7C0144
:1010600032C28EC28F7589118D8B8E8D75A888D2F4
:101070008E32BF051ADB07C28EC28F7C0132C28E50
:10108000C28F7589118D8B8E8D75A888D28E32BFD7
:10109000061ADB07C28EC28F7C0132C28EC28F75E8
:1010A00089118D8B8E8D75A888D28E32BF071ADB81
:1010B00007C28EC28F7C0132C28EC28F7589118D9C
:1010C0008B8E8D75A888D28E32BF081ADB07C28E30
:1010D000C28F7C0132C28EC28F7589118D8B8E8D2D
:0710E00075A888D28E3232A0
:00000001FF
