:03000000020100FA
:100100007550027551087552007553097554027582
:100110005500755600755702AA5078507C007D0036
:100120007F00910031FB7481913D31FB855030910E
:100130006BE560915A7482913D31FB855130916B32
:10014000E560915A7483913D31FB742D915A74840A
:10015000913D31FB855230916BE560915A748591E8
:100160003D31FB855330916BE560915A7486913D2A
:1001700031FB742D915A7487913D31FB8554309138
:100180006BE560915A7488913D31FB855530916BD8
:10019000E560915A7489913D31FB855630916BE54C
:1001A00060915A748A913D31FB855730916BE560BF
:1001B000915A31B680FEEAC4F59008860231F20DFC
:1001C000BD08157C00AA5078507F007D00740FC4D4
:1001D000F59031F20201B6220FBF06057C00020144
:1001E000B60CBC02D1740FC4F5907C0031F2020150
:1001F000B6227BC831FBDBFC7BC822C0007E0451E9
:0F02000006DEFCD00022C00079F4D9FED0002227
:1004000075A038C280C281D28231FBC28231FB75B5
:10041000A00CC280C281D28231FBC28231FB75A0A6
:1004200001C280C281D28231FBC28231FB75A0063B
:10043000C280C281D28231FBC28231FB22F5A0C2CE
:1004400080C281D28231FBC28231FB22C0E0E493C0
:100450006005915AA380F7D0E022F5A0D280C28136
:10046000D28231FBC28231FB31FB22AE30EE540F1F
:10047000F9EE54F0C4FAAE019185850360AE0291A5
:100480008585036122BE00037B3022BE01037B31E0
:1004900022BE02037B3222BE03037B3322BE04034F
:1004A0007B3422BE05037B3522BE06037B3622BE8B
:1004B00007037B3722BE08037B3822BE09037B3942
:1004C00022BE0A037B4122BE0B037B4222BE0C03E9
:1004D0007B4322BE0D037B4422BE0E037B45227B61
:0204E0004622B2
:00000001FF
